S00D00006C616262352E7372656351
S11300000C942E000C945A040C94C9040C943805D6
S11300100C94A7050C9416060C944B000C94810CBC
S11300200C944B000C942F0C0C9485060C94F40641
S11300300C9463070C94D2070C9441080C94B008F8
S11300400C941F090C948E090C94FD090C946C0AF1
S11300500C94DB0A0C944A0B0C94B90B11241FBEAC
S1130060CFEFD4E0DEBFCDBF11E0A0E0B1E0E6EB1E
S1130070F0E202C005900D92AC31B107D9F724E04B
S1130080ACE1B1E001C01D92AF36B207E1F70E94C6
S11300904D000C9459100C9400000F931F93CF93B0
S11300A0DF93CDB7DEB7A0970FB6F894DEBF0FBECF
S11300B0CDBF1A8219821C821B821E821D82188661
S11300C01F829E012F5F3F4F3A8729871E861D8618
S11300D0188A1F86CE0105969A8B898B3C8B2B8BB5
S11300E01E8A1D8A188E1F8A1A8E198E1C8E1B8ECC
S11300F01E8E1D8E18A21F8E8E01035F1F4F1C873C
S11301000B8748E06FE372E00E94040F40E050E088
S113011066E671E0C8010E941F0FA0960FB6F8941E
S1130120DEBF0FBECDBFDF91CF911F910F91089518
S1130130CF92DF92EF92FF920F931F93FC01808581
S113014091850197918780876F0188E0C80ED11C43
S1130150068117810F2EF8EDEF2EFFE0FF2EF02D14
S113016020E030E0A90160E070E0CB010E94210DA5
S11301701F910F91FF90EF90DF90CF900895CF9251
S1130180DF92EF92FF920F931F93FC016130710590
S113019031F48285938501969387828708C0623003
S11301A0710529F4848595850196958784876F0167
S11301B088E0C80ED11C068117810F2EF8EDEF2EB2
S11301C0FFE0FF2EF02D20E030E0A90160E070E0B8
S11301D0CB010E94210D1F910F91FF90EF90DF90B2
S11301E0CF900895CF92DF92EF92FF920F931F93D7
S11301F0CF93DF93EC016130710531F48A859B85DF
S113020001979B878A8708C06230710529F48C8521
S11302109D8501979D878C878A899B8901969B8BF5
S11302208A8B888599850196998788876E0188E0ED
S1130230C80ED11C0E811F810F2EF8EDEF2EFFE0AA
S1130240FF2EF02D20E030E0A90160E070E0CB014A
S11302500E94210DC12CD12C0F2EF8E9EF2EF0E0D5
S1130260FF2EF02D8E0120E030E0A9016AE572E650
S113027082E090E00E94210DDF91CF911F910F91B8
S1130280FF90EF90DF90CF900895CF92DF92EF929E
S1130290FF920F931F93FC01778766870481158172
S11302A06B010F2EF9EBEF2EF2E0FF2EF02D20E084
S11302B030E0A90160E070E0CB010E94210D1F91A4
S11302C00F91FF90EF90DF90CF900895CF92DF923F
S11302D0EF92FF920F931F93CF93DF93EC010E8164
S11302E01F81C12CD12C0F2EF6E3EF2EFFE0FF2E41
S11302F0F02D20E030E0A90160E070E0CB010E9425
S1130300210D6E0188E0C80ED11C0E811F810F2EB5
S1130310F8EDEF2EFFE0FF2EF02D20E030E0A901F4
S113032060E070E0CB010E94210D60E070E0CE013E
S11303300E94450161E070E0CE010E94450162E047
S113034070E0CE010E944501C12CD12C0F2EFEEB92
S1130350EF2EF1E0FF2EF02D8E0120E030E0A90118
S113036060E070E0CB010E94210DDF91CF911F91DD
S11303700F91FF90EF90DF90CF900895CF92DF928E
S1130380EF92FF920F931F93CF93DF93EC016E854F
S11303907F8561157105F1F588859985892B11F59E
S11303A0198A188A1B8A1A8A8A859B85181619063F
S11303B054F481E090E0998B888B61E070E0CE0189
S11303C00E94450141C08C859D8518161906E4F5E7
S11303D082E090E0998B888B62E070E0CE010E940D
S11303E0450132C0688979896115710569F18A8985
S11303F09B8905974CF5FB013496EE0FFF1FEC0F1C
S1130400FD1F8081918118161906F4F4CE010E9413
S113041045011AC061157105B9F0FB013496EE0F60
S1130420FF1FE80FF91F80819181892B21F08A89B0
S11304309B89059734F060E070E0CE010E9445018D
S113044003C0CE010E944501C12CD12C0F2EFEEB1E
S1130450EF2EF1E0FF2EF02D8E0120E030E0A90117
S113046062E17AE780E090E00E94210DDF91CF9174
S11304701F910F91FF90EF90DF90CF900895CF924E
S1130480DF92EF92FF920F931F93CF93DF931F920C
S1130490CDB7DEB7FC019091C0009923E4F79091A9
S11304A0C6009983998190FF14C006811781CC24DA
S11304B0C394D12C0F2EFFEBEF2EF0E0FF2EF02D86
S11304C020E030E0A90160E070E0CB010E94210D42
S11304D046C0898181FF14C006811781CC24C3944E
S11304E0D12C0F2EF2EFEF2EF0E0FF2EF02D20E0B6
S11304F030E0A90160E070E0CB010E94210D2FC023
S1130500898182FF15C0068117816894CC24C1F8C3
S1130510D12C0F2EFFEBEF2EF0E0FF2EF02D20E07C
S113052030E0A90160E070E0CB010E94210D17C00A
S1130530898183FF14C0068117816894CC24C1F893
S1130540D12C0F2EF2EFEF2EF0E0FF2EF02D20E055
S113055030E0A90160E070E0CB010E94210D0F9012
S1130560DF91CF911F910F91FF90EF90DF90CF908B
S113057008956115710541F06130710539F06230FB
S1130580710531F496E005C09AE003C099E001C01A
S113059090E08091C00085FFFCCF9093C600089541
S11305A0CF93DF9300D000D0CDB7DEB780E090E0EA
S11305B018C0AC014F5F5F4F9A0122953295307F8E
S11305C03227207F322721503E4F82959295907F8B
S11305D09827807F9827FC01E150FE4F31832083C8
S11305E0CA018E3091052CF31092E0021092DF02C2
S11305F080E090E015C0AC014F5F5F4F6DE1649FF8
S11306009001659F300D1124265B3E4F689FF001D9
S1130610699FF00D1124E65BFE4F31832083CA01EC
S11306208330910544F31092A2011092A1011A8221
S1130630198232C02DE149815A81249FC001259F2E
S1130640900D1124FC01E05BFE4FFC83EB83CF0192
S11306500E94181020E649815A81249FC001259FD9
S1130660900D1124855B9C4FEB81FC81918B808BD9
S1130670938B828B8CEA9EE0968B858B8DE1849F95
S1130680F001859FF00D1124E65BFE4F1582148264
S11306904F5F5F4F5A83498329813A812430310562
S11306A04CF2E2EEF1E01182108215821482138280
S11306B01282E1E6F0E080E88083108210928500E7
S11306C01092840084E08093810081E080936F0025
S11306D00F900F900F900F90DF91CF910895CF93CB
S11306E0DF9300D0CDB7DEB79A8389838091000170
S11306F09091010106960E941810892B59F4898162
S11307009A81909301018093000161E070E0069664
S11307100E9438100F900F90DF91CF9108950F939E
S11307201F93CF93DF93DC01CB01EB01E881F981C7
S1130730C0E0D0E004C0EF010190F081E02D3097DB
S113074079F0068117812085318516964D915D914A
S11307506D917C91199740175107620773075CF7F5
S11307601196FC93EE93209721F4FC01B183A083AE
S113077002C0B983A883DF91CF911F910F9108958F
S11307800F931F93CF93DF93DC01CB01EB01E8813F
S1130790F981C0E0D0E004C0EF010190F081E02DC8
S11307A0309779F0028113812481358112964D911D
S11307B05D916D917C9115974017510762077307FE
S11307C05CF71196FC93EE93209721F4FC01B1831E
S11307D0A08302C0B983A883DF91CF911F910F91A9
S11307E00895DC01ED91FC911197309759F48FEF46
S11307F08093EC008093ED008093EE0081E083BF52
S11308008895FCCF208131812D933C93CF010895AD
S1130810FB0120813181FC0131832083FB01918321
S113082080830895FB0120813181FC013183208381
S1130830FB01918380830895DC01ED91FC91119774
S1130840208131812D933C93CF010895CF93DF9381
S1130850E0910201F0910301C281D381E09124016E
S1130860F0912501309719F18091040190910501CF
S1130870892BE9F0209769F086819781A085B1855D
S11308804E815F8168857985841B950BA60BB70B18
S113089072F484E091E00E941C0462E071E00E9422
S11308A0120480910201909103010E946F03DF9171
S11308B0CF9108951F920F920FB60F9211240F93A8
S11308C01F932F933F934F935F936F937F938F93D4
S11308D09F93AF93BF93EF93FF9380911C019091EB
S11308E01D01AC01092E000C660B770B9A01112730
S11308F00027409184005091850060E070E0402B17
S1130900512B622B732B40931E0150931F01609354
S1130910200170932101B09B1AC00196092E000C8E
S1130920AA0BBB0BBC0155274427809184009091EE
S11309308500A0E0B0E0842B952BA62BB72B8093E9
S11309401E0190931F01A0932001B0932101E09117
S1130950BE01F091BF01309739F060E070E0809102
S113096026019091270109950E942604FF91EF9199
S1130970BF91AF919F918F917F916F915F914F91B3
S11309803F912F911F910F910F900FBE0F901F90C9
S113099018951F920F920FB60F9211240F931F9365
S11309A02F933F934F935F936F937F938F939F9373
S11309B0AF93BF93EF93FF9380911C0190911D011E
S11309C0AC01092E000C660B770B9A011127002746
S11309D0409184005091850060E070E0402B512BE1
S11309E0622B732B40931E0150931F0160932001CF
S11309F070932101B09B1AC00196092E000CAA0B1A
S1130A00BB0BBC015527442780918400909185003D
S1130A10A0E0B0E0842B952BA62BB72B80931E016E
S1130A2090931F01A0932001B0932101E091C00194
S1130A30F091C101309739F061E070E080912801B4
S1130A409091290109950E942604FF91EF91BF918D
S1130A50AF919F918F917F916F915F914F913F9152
S1130A602F911F910F910F900FBE0F901F9018950B
S1130A701F920F920FB60F9211240F931F932F936F
S1130A803F934F935F936F937F938F939F93AF9312
S1130A90BF93EF93FF9380911C0190911D01AC01D2
S1130AA0092E000C660B770B9A0111270027409141
S1130AB084005091850060E070E0402B512B622B44
S1130AC0732B40931E0150931F0160932001709378
S1130AD02101B09B1AC00196092E000CAA0BBB0B76
S1130AE0BC01552744278091840090918500A0E0A3
S1130AF0B0E0842B952BA62BB72B80931E019093EB
S1130B001F01A0932001B0932101E091C201F09153
S1130B10C301309739F062E070E080912A0190912E
S1130B202B0109950E942604FF91EF91BF91AF918B
S1130B309F918F917F916F915F914F913F912F91F1
S1130B401F910F910F900FBE0F901F9018951F9239
S1130B500F920FB60F9211240F931F932F933F936D
S1130B604F935F936F937F938F939F93AF93BF93B1
S1130B70EF93FF9380911C0190911D01AC01092E0C
S1130B80000C660B770B9A01112700274091840013
S1130B905091850060E070E0402B512B622B732B49
S1130BA040931E0150931F01609320017093210113
S1130BB0B09B1AC00196092E000CAA0BBB0BBC01FA
S1130BC0552744278091840090918500A0E0B0E0EF
S1130BD0842B952BA62BB72B80931E0190931F017A
S1130BE0A0932001B0932101E091C401F091C501CB
S1130BF0309739F063E070E080912C0190912D01E1
S1130C0009950E942604FF91EF91BF91AF919F91A6
S1130C108F917F916F915F914F913F912F911F9190
S1130C200F910F900FBE0F901F9018951F920F9267
S1130C300FB60F9211240F931F932F933F934F934B
S1130C405F936F937F938F939F93AF93BF93EF9330
S1130C50FF9380911C0190911D01AC01092E000CA1
S1130C60660B770B9A01112700274091840050915D
S1130C70850060E070E0402B512B622B732B409376
S1130C801E0150931F016093200170932101B09BBA
S1130C901AC00196092E000CAA0BBB0BBC015527E8
S1130CA044278091840090918500A0E0B0E0842BDB
S1130CB0952BA62BB72B80931E0190931F01A09315
S1130CC02001B0932101E091C601F091C701309752
S1130CD039F064E070E080912E0190912F01099524
S1130CE00E942604FF91EF91BF91AF919F918F9144
S1130CF07F916F915F914F913F912F911F910F9130
S1130D000F900FBE0F901F9018951F920F920FB661
S1130D100F9211240F931F932F933F934F935F933D
S1130D206F937F938F939F93AF93BF93EF93FF93AF
S1130D3080911C0190911D01AC01092E000C660BE1
S1130D40770B9A0111270027409184005091850068
S1130D5060E070E0402B512B622B732B40931E01FB
S1130D6050931F016093200170932101B09B1AC01E
S1130D700196092E000CAA0BBB0BBC015527442776
S1130D808091840090918500A0E0B0E0842B952BA5
S1130D90A62BB72B80931E0190931F01A0932001D3
S1130DA0B0932101E091C801F091C901309739F065
S1130DB065E070E0809130019091310109950E94C5
S1130DC02604FF91EF91BF91AF919F918F917F91F5
S1130DD06F915F914F913F912F911F910F910F90C0
S1130DE00FBE0F901F9018951F920F920FB60F927F
S1130DF011240F931F932F933F934F935F936F93FC
S1130E007F938F939F93AF93BF93EF93FF938091BF
S1130E101C0190911D01AC01092E000C660B770B8F
S1130E209A0111270027409184005091850060E0C9
S1130E3070E0402B512B622B732B40931E01509377
S1130E401F016093200170932101B09B1AC0019689
S1130E50092E000CAA0BBB0BBC015527442780911B
S1130E60840090918500A0E0B0E0842B952BA62B04
S1130E70B72B80931E0190931F01A0932001B09380
S1130E802101E091CA01F091CB01309739F066E07D
S1130E9070E0809132019091330109950E942604FB
S1130EA0FF91EF91BF91AF919F918F917F916F913E
S1130EB05F914F913F912F911F910F910F900FBE12
S1130EC00F901F9018951F920F920FB60F92112436
S1130ED00F931F932F933F934F935F936F937F933E
S1130EE08F939F93AF93BF93EF93FF9380911C01D4
S1130EF090911D01AC01092E000C660B770B9A0131
S1130F0011270027409184005091850060E070E033
S1130F10402B512B622B732B40931E0150931F01C6
S1130F206093200170932101B09B1AC00196092E91
S1130F30000CAA0BBB0BBC015527442780918400ED
S1130F4090918500A0E0B0E0842B952BA62BB72BC5
S1130F5080931E0190931F01A0932001B09321015F
S1130F60E091CC01F091CD01309739F067E070E069
S1130F70809134019091350109950E942604FF91D6
S1130F80EF91BF91AF919F918F917F916F915F91FD
S1130F904F913F912F911F910F910F900FBE0F9082
S1130FA01F9018951F920F920FB60F9211240F9352
S1130FB01F932F933F934F935F936F937F938F93DD
S1130FC09F93AF93BF93EF93FF9380911C019091F4
S1130FD01D01AC01092E000C660B770B9A01112739
S1130FE00027409184005091850060E070E0402B20
S1130FF0512B622B732B40931E0150931F0160935E
S1131000200170932101B09B1AC00196092E000C97
S1131010AA0BBB0BBC0155274427809184009091F7
S11310208500A0E0B0E0842B952BA62BB72B8093F2
S11310301E0190931F01A0932001B0932101E09120
S1131040CE01F091CF01309739F068E070E08091E3
S113105036019091370109950E942604FF91EF9182
S1131060BF91AF919F918F917F916F915F914F91BC
S11310703F912F911F910F910F900FBE0F901F90D2
S113108018951F920F920FB60F9211240F931F936E
S11310902F933F934F935F936F937F938F939F937C
S11310A0AF93BF93EF93FF9380911C0190911D0127
S11310B0AC01092E000C660B770B9A01112700274F
S11310C0409184005091850060E070E0402B512BEA
S11310D0622B732B40931E0150931F0160932001D8
S11310E070932101B09B1AC00196092E000CAA0B23
S11310F0BB0BBC0155274427809184009091850047
S1131100A0E0B0E0842B952BA62BB72B80931E0177
S113111090931F01A0932001B0932101E091D0018D
S1131120F091D101309739F069E070E08091380195
S11311309091390109950E942604FF91EF91BF9186
S1131140AF919F918F917F916F915F914F913F915B
S11311502F911F910F910F900FBE0F901F90189514
S11311601F920F920FB60F9211240F931F932F9378
S11311703F934F935F936F937F938F939F93AF931B
S1131180BF93EF93FF9380911C0190911D01AC01DB
S1131190092E000C660B770B9A011127002740914A
S11311A084005091850060E070E0402B512B622B4D
S11311B0732B40931E0150931F0160932001709381
S11311C02101B09B1AC00196092E000CAA0BBB0B7F
S11311D0BC01552744278091840090918500A0E0AC
S11311E0B0E0842B952BA62BB72B80931E019093F4
S11311F01F01A0932001B0932101E091D201F0914D
S1131200D301309739F06AE070E080913A0190910F
S11312103B0109950E942604FF91EF91BF91AF9184
S11312209F918F917F916F915F914F913F912F91FA
S11312301F910F910F900FBE0F901F9018951F9242
S11312400F920FB60F9211240F931F932F933F9376
S11312504F935F936F937F938F939F93AF93BF93BA
S1131260EF93FF9380911C0190911D01AC01092E15
S1131270000C660B770B9A0111270027409184001C
S11312805091850060E070E0402B512B622B732B52
S113129040931E0150931F0160932001709321011C
S11312A0B09B1AC00196092E000CAA0BBB0BBC0103
S11312B0552744278091840090918500A0E0B0E0F8
S11312C0842B952BA62BB72B80931E0190931F0183
S11312D0A0932001B0932101E091D401F091D501B4
S11312E0309739F06BE070E080913C0190913D01C2
S11312F009950E942604FF91EF91BF91AF919F91B0
S11313008F917F916F915F914F913F912F911F9199
S11313100F910F900FBE0F901F9018951F920F9270
S11313200FB60F9211240F931F932F933F934F9354
S11313305F936F937F938F939F93AF93BF93EF9339
S1131340FF9380911C0190911D01AC01092E000CAA
S1131350660B770B9A011127002740918400509166
S1131360850060E070E0402B512B622B732B40937F
S11313701E0150931F016093200170932101B09BC3
S11313801AC00196092E000CAA0BBB0BBC015527F1
S113139044278091840090918500A0E0B0E0842BE4
S11313A0952BA62BB72B80931E0190931F01A0931E
S11313B02001B0932101E091D601F091D70130973B
S11313C039F06CE070E080913E0190913F01099505
S11313D00E942604FF91EF91BF91AF919F918F914D
S11313E07F916F915F914F913F912F911F910F9139
S11313F00F900FBE0F901F9018951F920F920FB66B
S11314000F9211240F931F932F933F934F935F9346
S11314106F937F938F939F93AF93BF93EF93FF93B8
S113142080911C0190911D01AC01092E000C660BEA
S1131430770B9A0111270027409184005091850071
S113144060E070E0402B512B622B732B40931E0104
S113145050931F016093200170932101B09B1AC027
S11314600196092E000CAA0BBB0BBC01552744277F
S11314708091840090918500A0E0B0E0842B952BAE
S1131480A62BB72B80931E0190931F01A0932001DC
S1131490B0932101E091D801F091D901309739F04E
S11314A06DE070E0809140019091410109950E94A6
S11314B02604FF91EF91BF91AF919F918F917F91FE
S11314C06F915F914F913F912F911F910F910F90C9
S11314D00FBE0F901F9018951F920F920FB60F9288
S11314E011240F931F932F933F934F935F936F9305
S11314F07F938F939F93AF93BF93EF93FF938091C9
S11315001C0190911D01AC01092E000C660B770B98
S11315109A0111270027409184005091850060E0D2
S113152070E0402B512B622B732B40931E01509380
S11315301F016093200170932101B09B1AC0019692
S1131540092E000CAA0BBB0BBC0155274427809124
S1131550840090918500A0E0B0E0842B952BA62B0D
S1131560B72B80931E0190931F01A0932001B09389
S11315702101E091DA01F091DB01309739F06EE05E
S113158070E0809142019091430109950E942604E4
S1131590FF91EF91BF91AF919F918F917F916F9147
S11315A05F914F913F912F911F910F910F900FBE1B
S11315B00F901F9018951F920F920FB60F9211243F
S11315C00F931F932F933F934F935F936F937F9347
S11315D08F939F93AF93BF93EF93FF9380911C01DD
S11315E090911D01AC01092E000C660B770B9A013A
S11315F011270027409184005091850060E070E03D
S1131600402B512B622B732B40931E0150931F01CF
S11316106093200170932101B09B1AC00196092E9A
S1131620000CAA0BBB0BBC015527442780918400F6
S113163090918500A0E0B0E0842B952BA62BB72BCE
S113164080931E0190931F01A0932001B093210168
S1131650E091DC01F091DD01309739F06FE070E04A
S1131660809144019091450109950E942604FF91BF
S1131670EF91BF91AF919F918F917F916F915F9106
S11316804F913F912F911F910F910F900FBE0F908B
S11316901F9018951F920F920FB60F9211240F935B
S11316A01F932F933F934F935F936F937F938F93E6
S11316B09F93AF93BF93EF93FF9380911C019091FD
S11316C01D01AC01092E000C660B770B9A01112742
S11316D00027409184005091850060E070E0402B29
S11316E0512B622B732B40931E0150931F01609367
S11316F0200170932101B09B1AC00196092E000CA1
S1131700AA0BBB0BBC015527442780918400909100
S11317108500A0E0B0E0842B952BA62BB72B8093FB
S11317201E0190931F01A0932001B0932101E09129
S1131730DE01F091DF01309739F060E170E08091D3
S113174046019091470109950E942604FF91EF916B
S1131750BF91AF919F918F917F916F915F914F91C5
S11317603F912F911F910F910F900FBE0F901F90DB
S113177018951F920F920FB60F9211240F931F9377
S11317802F933F934F935F936F937F938F939F9385
S1131790AF93BF93EF93FF9380911C0190911D0130
S11317A0AC01092E000C660B770B9A011127002758
S11317B0409184005091850060E070E0402B512BF3
S11317C0622B732B40931E0150931F0160932001E1
S11317D070932101B09B1AC00196092E000CAA0B2C
S11317E0BB0BBC0155274427809184009091850050
S11317F0A0E0B0E0842B952BA62BB72B80931E0181
S113180090931F01A0932001B0932101E091E00186
S1131810F091E101309739F061E170E08091480185
S11318209091490109950E942604FF91EF91BF917F
S1131830AF919F918F917F916F915F914F913F9164
S11318402F911F910F910F900FBE0F901F9018951D
S11318500E942604789481E083BF8895FCCF1F9270
S11318600F920FB60F9211242F933F934F935F93D0
S11318706F937F938F939F93EF93FF9380911C01BA
S113188090911D01019690931D0180931C01E0919C
S11318902201F0912301309701F142815381648147
S11318A0758186179707C9F4CA0120918400309185
S11318B08500421B530B4130510529F4809184006B
S11318C09091850001969093890080938800EFE6BB
S11318D0F0E080818260808305C0EFE6F0E08081E3
S11318E08D7F8083FF91EF919F918F917F916F9175
S11318F05F914F913F912F910F900FBE0F901F90CA
S113190018951F920F920FB60F921124CF92DF9267
S1131910EF92FF922F933F934F935F936F937F9335
S11319208F939F93AF93BF93EF93FF9380911C0189
S113193090911D016C01092E000CEE08FF08760140
S1131940DD24CC24409184005091850060E070E057
S1131950C42AD52AE62AF72AB09B1EC06C012FEFB1
S1131960C21AD20A0D2C000CEE08FF08D6019927E2
S11319708827C0908400D0908500E12CF12CC82ADF
S1131980D92AEA2AFB2A08C082E291E00E94F103E4
S113199064E271E00E948F03E0912201F09123013F
S11319A0309769F082819381A481B5818C199D0956
S11319B0AE09BF09181619061A061B062CF730972C
S11319C021F182819381A481B58120911C01309100
S11319D01D012A173B07C9F49C01409184005091D2
S11319E08500841B950B019731F42091840030917C
S11319F085002F5F3F4F3093890020938800EFE6E6
S1131A00F0E080818260808305C0EFE6F0E08081B1
S1131A108D7F80830E942604FF91EF91BF91AF9147
S1131A209F918F917F916F915F914F913F912F91F2
S1131A30FF90EF90DF90CF900F900FBE0F901F900C
S1131A4018953F924F925F926F927F928F929F92DE
S1131A50AF92BF92CF92DF92EF92FF920F931F93B8
S1131A60CF93DF932B013C0149015A018FB7807852
S1131A70382EF89486E091E00E94F103EC011B8774
S1131A800A87FD86EC86DF86CE86332061F0E091FE
S1131A900001F09101010280F381E02D82819381A4
S1131AA0A481B58108C080911E0190911F01A0916D
S1131AB02001B0912101480E591E6A1E7B1E4A82E4
S1131AC05B826C827D82181419041A041B0444F08E
S1131AD00F2E88248A94982CA82CFFE7BF2EF02D73
S1131AE0840C951CA61CB71C8E829F82A886B9867E
S1131AF020911C0130911D01C901032E000CAA0B79
S1131B00BB0BDC0199278827409184005091850004
S1131B1060E070E0842B952BA62BB72BB09B13C0F1
S1131B20C9010196092E000CAA0BBB0BDC019927F5
S1131B308827409184005091850060E070E0842BF8
S1131B40952BA62BB72B481A590A6A0A7B0A141438
S1131B50150416041704ACF562E271E0CE010E948C
S1131B60C003E0912201F0912301309721F1828199
S1131B709381A481B58120911C0130911D012A1704
S1131B803B07C9F49C014091840050918500841B5B
S1131B90950B019731F420918400309185002F5FDB
S1131BA03F4F3093890020938800EFE6F0E0808176
S1131BB08260808339C0EFE6F0E080818D7F80838E
S1131BC033C064E271E0CE010E948F03332061F1DF
S1131BD08091040190910501892B31F1E091240158
S1131BE0F091250186819781A085B185E09102015C
S1131BF0F09103010280F381E02D468157816085D5
S1131C007185841B950BA60BB70B72F484E091E0ED
S1131C100E941C0462E071E00E941204809102019F
S1131C20909103010E946F03332009F07894CE0150
S1131C30DF91CF911F910F91FF90EF90DF90CF90A4
S1131C40BF90AF909F908F907F906F905F904F90D8
S1131C503F900895CF92DF92EF92FF920F931F93DC
S1131C60CF93DF93EC017B016A011FB71078F894DE
S1131C70A881B981109719F435C0A081B181149657
S1131C80ED91FC9115973097C1F7209100013091A7
S1131C900101A217B30711F0111107C0112309F4B0
S1131CA04AC078948FEF9FEF4EC08A819B81009742
S1131CB019F0FC01158214823B832A83F901D58330
S1131CC0C483CD010E946F03E0910001F0910101F2
S1131CD082819381892B31F4112381F1789480E0FE
S1131CE090E031C080910001909101019983888333
S1131CF0112329F08A819B81019709F07894B60118
S1131D00CE01F7010995F82E092F8FB7F89419829F
S1131D1018828A819B818230910538F01B821A8255
S1131D20FC01158214820E946F03112351F07894F0
S1131D308F2D902F08C08FEF9FEF05C080E090E0BB
S1131D4002C08F2D902FDF91CF911F910F91FF90A3
S1131D50EF90DF90CF900895009100011091010160
S1131D6084E291E00E94F103EC01F8019383828301
S1131D7078946C857D854E855F858A859B850E94D8
S1131D802A0E8FB7F89466E071E0CE010E94080431
S1131D90E0910201F09103010190F081E02DC281F4
S1131DA0D381E0912401F09125013097A1F020978F
S1131DB099F286819781A085B1854E815F8168857E
S1131DC07985841B950BA60BB70B181619061A06F2
S1131DD01B060CF0C1CF82E091E00E941C0464E079
S1131DE071E00E941204A0910201B091030102C0AB
S1131DF0A081B1811496ED91FC9115973097C1F7AC
S1131E00CD010E946F03A8CFFC014231B8F49FB703
S1131E109078F89450E0440F551FDA01AA5DBE4F44
S1131E20ED93FC93DA01A254BE4F6D937C9321E0B1
S1131E3030E033832283992309F0789408958C0148
S1131E407B016A018FB7F8940E94D0027894E11460
S1131E50F10441F020E030E0A90160E070E0CB0142
S1131E600E94210D8FB7F8940E94280CE1E6F0E05F
S1131E7080E88083108280EC8093E40087EB809379
S1131E80E50087E08093E6008FE08093E70081E03F
S1131E908093ED0088E98093C10086E08093C200BE
S1131EA01092C50083E38093C4000895CF93DF9319
S1131EB0CDB7DEB764970FB6F894DEBF0FBECDBFC3
S1131EC094E1E8E0F1E0DE01119601900D929A951B
S1131ED0E1F790ED980F9A3070F4E82FF0E0F09766
S1131EE0EE0FFF1F81E090E08C0F9D1FE80FF91F9C
S1131EF04081518102C040E050E0FB01F595E79537
S1131F00E451FF4FDB01A170BB2760FD02C060EF0D
S1131F1001C06FE020E030E018C0CA018F7099273B
S1131F20529542954F7045275F704527109731F0C1
S1131F3082959295907F9827807F98279081962309
S1131F40892B808335962F5F3F4F243031052CF346
S1131F5064960FB6F894DEBF0FBECDBFDF91CF916C
S1131F600895EF92FF920F931F93CF93DF93EC01A9
S1131F707B01CB0164E670E00E94F00F0AE010E000
S1131F80B8010E94F00F862FBE01805D0E94560F9B
S1131F902196C701B8010E94F00FBE01805D0E9426
S1131FA0560FDF91CF911F910F91FF90EF900895FD
S1131FB0CF93DF93EB016A817B8180E090E00E9404
S1131FC0B10F6881798182E090E00E94B10F6C8149
S1131FD07D8184E090E00E94B10FDF91CF9108955C
S1131FE097FB072E16F4009407D077FD09D00E94C2
S1131FF0041007FC05D03EF4909581959F4F0895F9
S1132000709561957F4F0895AA1BBB1B51E107C0D2
S1132010AA1FBB1FA617B70710F0A61BB70B881F74
S1132020991F5A95A9F780959095BC01CD01089503
S1132030DC012D923D924D925D926D927D928D9236
S11320409D92AD92BD92CD92DD92ED92FD920D9353
S11320501D93CD93DD93FF91EF918DB78D938EB743
S11320608D938FB78D93ED93FD93882799270994CA
S1132070DC01CB0181309105811D2D903D904D9067
S11320805D906D907D908D909D90AD90BD90CD9024
S1132090DD90ED90FD900D911D91CD91DD91ED912F
S11320A0FD910D90F894FEBF0FBEEDBFED91FD9133
S10920B00994F894FFCF2F
S11320B6E201E2014A01FF0151151001111E111B33
S10F20C6500B411B411F0940511F511BCE
S9030000FC
